{
  "contractName": "Multiplexer",
  "abi": [
    {
      "constant": false,
      "inputs": [
        {
          "name": "_to",
          "type": "address[]"
        },
        {
          "name": "_value",
          "type": "uint256[]"
        }
      ],
      "name": "sendEth",
      "outputs": [
        {
          "name": "_success",
          "type": "bool"
        }
      ],
      "payable": true,
      "stateMutability": "payable",
      "type": "function"
    },
    {
      "constant": false,
      "inputs": [
        {
          "name": "_tokenAddress",
          "type": "address"
        },
        {
          "name": "_to",
          "type": "address[]"
        },
        {
          "name": "_value",
          "type": "uint256[]"
        }
      ],
      "name": "sendErc20",
      "outputs": [
        {
          "name": "_success",
          "type": "bool"
        }
      ],
      "payable": false,
      "stateMutability": "nonpayable",
      "type": "function"
    }
  ],
  "bytecode": "0x6060604052341561000f57600080fd5b5b6104ae8061001f6000396000f30060606040526000357c0100000000000000000000000000000000000000000000000000000000900463ffffffff16806325245b2614610049578063aee25613146100f0575b600080fd5b6100d6600480803590602001908201803590602001908080602002602001604051908101604052809392919081815260200183836020028082843782019150505050505091908035906020019082018035906020019080806020026020016040519081016040528093929190818152602001838360200280828437820191505050505050919050506101c1565b604051808215151515815260200191505060405180910390f35b34156100fb57600080fd5b6101a7600480803573ffffffffffffffffffffffffffffffffffffffff1690602001909190803590602001908201803590602001908080602002602001604051908101604052809392919081815260200183836020028082843782019150505050505091908035906020019082018035906020019080806020026020016040519081016040528093929190818152602001838360200280828437820191505050505050919050506102f5565b604051808215151515815260200191505060405180910390f35b6000806000806000855187511415156101d657fe5b60ff8751111515156101e457fe5b34935060009250600091505b86518260ff16101561029a57858260ff1681518110151561020d57fe5b9060200190602002015183019250868260ff1681518110151561022c57fe5b9060200190602002015173ffffffffffffffffffffffffffffffffffffffff166108fc878460ff1681518110151561026057fe5b906020019060200201519081150290604051600060405180830381858888f19350505050151561028c57fe5b5b81806001019250506101f0565b828403905060008111156102e6573373ffffffffffffffffffffffffffffffffffffffff166108fc829081150290604051600060405180830381858888f1935050505015156102e557fe5b5b600194505b5050505092915050565b60008060008351855114151561030757fe5b60ff85511115151561031557fe5b859150600090505b84518160ff16101561047457600115158273ffffffffffffffffffffffffffffffffffffffff166323b872dd33888560ff1681518110151561035b57fe5b90602001906020020151888660ff1681518110151561037657fe5b906020019060200201516000604051602001526040518463ffffffff167c0100000000000000000000000000000000000000000000000000000000028152600401808473ffffffffffffffffffffffffffffffffffffffff1673ffffffffffffffffffffffffffffffffffffffff1681526020018373ffffffffffffffffffffffffffffffffffffffff1673ffffffffffffffffffffffffffffffffffffffff1681526020018281526020019350505050602060405180830381600087803b151561044057600080fd5b6102c65a03f1151561045157600080fd5b50505060405180519050151514151561046657fe5b5b808060010191505061031d565b600192505b505093925050505600a165627a7a7230582041cd432a038c73cefd063874e693a44bef92ef5fd065f580de3127b19958fab00029",
  "source": "pragma solidity ^0.4.16;\n\nimport './ERC20.sol';\n\n/// @title Multiplexer\n/// @author Chris Hitchcott\n/// :repository https://github.com/DigixGlobal/multiplexer\n\ncontract Multiplexer {\n\n\tfunction sendEth(address[] _to, uint256[] _value) payable public returns (bool _success) {\n\t\t// input validation\n\t\tassert(_to.length == _value.length);\n\t\tassert(_to.length <= 255);\n\t\t// count values for refunding sender\n\t\tuint256 beforeValue = msg.value;\n\t\tuint256 afterValue = 0;\n\t\t// loop through to addresses and send value\n\t\tfor (uint8 i = 0; i < _to.length; i++) {\n\t\t\tafterValue = afterValue + _value[i];\n\t\t\tassert(_to[i].send(_value[i]));\n\t\t}\n\t\t// send back remaining value to sender\n\t\tuint256 remainingValue = beforeValue - afterValue;\n\t\tif (remainingValue > 0) {\n\t\t\tassert(msg.sender.send(remainingValue));\n\t\t}\n\t\treturn true;\n\t}\n\n\tfunction sendErc20(address _tokenAddress, address[] _to, uint256[] _value) public returns (bool _success) {\n\t\t// input validation\n\t\tassert(_to.length == _value.length);\n\t\tassert(_to.length <= 255);\n\t\t// use the erc20 abi\n\t\tERC20 token = ERC20(_tokenAddress);\n\t\t// loop through to addresses and send value\n\t\tfor (uint8 i = 0; i < _to.length; i++) {\n\t\t\tassert(token.transferFrom(msg.sender, _to[i], _value[i]) == true);\n\t\t}\n\t\treturn true;\n\t}\n\n}\n",
  "sourcePath": "/Users/jonathan/Documents/code/multiplexer/contracts/Multiplexer.sol",
  "compiler": {
    "name": "solc",
    "version": "0.4.16+commit.d7661dd9.Emscripten.clang"
  },
  "schemaVersion": "3.2.3",
  "updatedAt": "2020-10-02T15:52:02.914Z",
  "networkType": "ethereum",
  "devdoc": {
    "author": "Chris Hitchcott :repository https://github.com/DigixGlobal/multiplexer",
    "methods": {},
    "title": "Multiplexer"
  },
  "userdoc": {
    "methods": {}
  }
}